{
  "contractName": "LockedWallets",
  "abi": [
    {
      "inputs": [],
      "payable": false,
      "stateMutability": "nonpayable",
      "type": "constructor"
    },
    {
      "anonymous": false,
      "inputs": [
        {
          "indexed": false,
          "internalType": "address",
          "name": "from",
          "type": "address"
        },
        {
          "indexed": false,
          "internalType": "uint256",
          "name": "amount",
          "type": "uint256"
        }
      ],
      "name": "Received",
      "type": "event"
    },
    {
      "anonymous": false,
      "inputs": [
        {
          "indexed": false,
          "internalType": "address",
          "name": "tokenContract",
          "type": "address"
        },
        {
          "indexed": false,
          "internalType": "uint256",
          "name": "amount",
          "type": "uint256"
        }
      ],
      "name": "WithdrewTokens",
      "type": "event"
    },
    {
      "constant": true,
      "inputs": [],
      "name": "createdAt",
      "outputs": [
        {
          "internalType": "uint256",
          "name": "",
          "type": "uint256"
        }
      ],
      "payable": false,
      "stateMutability": "view",
      "type": "function"
    },
    {
      "constant": true,
      "inputs": [],
      "name": "unlockDate",
      "outputs": [
        {
          "internalType": "uint256",
          "name": "",
          "type": "uint256"
        }
      ],
      "payable": false,
      "stateMutability": "view",
      "type": "function"
    },
    {
      "constant": false,
      "inputs": [
        {
          "internalType": "address",
          "name": "_tokenContract",
          "type": "address"
        }
      ],
      "name": "get1000Tokens",
      "outputs": [],
      "payable": false,
      "stateMutability": "nonpayable",
      "type": "function"
    },
    {
      "constant": true,
      "inputs": [],
      "name": "info",
      "outputs": [
        {
          "internalType": "uint256",
          "name": "",
          "type": "uint256"
        },
        {
          "internalType": "uint256",
          "name": "",
          "type": "uint256"
        }
      ],
      "payable": false,
      "stateMutability": "view",
      "type": "function"
    }
  ],
  "bytecode": "0x608060405234801561001057600080fd5b5060c8600081905550426001819055506102968061002f6000396000f3fe608060405234801561001057600080fd5b506004361061004c5760003560e01c8063370158ea1461005157806355b955271461007657806369ac5721146100ba578063cf09e0d0146100d8575b600080fd5b6100596100f6565b604051808381526020018281526020019250505060405180910390f35b6100b86004803603602081101561008c57600080fd5b81019080803573ffffffffffffffffffffffffffffffffffffffff169060200190929190505050610107565b005b6100c2610255565b6040518082815260200191505060405180910390f35b6100e061025b565b6040518082815260200191505060405180910390f35b600080600054600154915091509091565b60005442101561011657600080fd5b600081905060006103e890508173ffffffffffffffffffffffffffffffffffffffff1663a9059cbb33836040518363ffffffff1660e01b8152600401808373ffffffffffffffffffffffffffffffffffffffff1673ffffffffffffffffffffffffffffffffffffffff16815260200182815260200192505050602060405180830381600087803b1580156101a957600080fd5b505af11580156101bd573d6000803e3d6000fd5b505050506040513d60208110156101d357600080fd5b8101908080519060200190929190505050507fc7373a0f64b3fe06c2144779575ea56ae879f4d815db065edd84fa72d744f1283382604051808373ffffffffffffffffffffffffffffffffffffffff1673ffffffffffffffffffffffffffffffffffffffff1681526020018281526020019250505060405180910390a1505050565b60005481565b6001548156fea265627a7a72315820b2c8d57fe74e5f354786f85926d088929d51928329ce09129c1683715fee5a7b64736f6c63430005100032",
  "source": "pragma solidity ^0.5.0;\n\nimport \"./SolidToken.sol\";\n\ncontract LockedWallets {\n  uint256 public unlockDate;\n  uint256 public createdAt;\n\n  constructor() public {\n    unlockDate = 200;\n    createdAt = now;\n  }\n  \n  function get1000Tokens(address _tokenContract) public {\n    require(now >= unlockDate);\n\n    // the address we are withdrawing the token from\n    SolidToken token = SolidToken(_tokenContract);\n\n    uint256 amount = 1000;\n    token.transfer(msg.sender, amount);\n    emit WithdrewTokens(msg.sender, amount);\n  }\n\n  // msg.sender(whoever is calling the contract, type = address).\n\n  function info() public view returns(uint256, uint256) {\n    return (unlockDate, createdAt);\n  }\n\n  event WithdrewTokens(address tokenContract, uint256 amount);\n  event Received(address from, uint256 amount);\n}",
  "sourcePath": "/Users/apple/Workspace/blockchain/solidDefi/contracts/LockedWallets.sol",
  "compiler": {
    "name": "solc",
    "version": "0.5.16+commit.9c3226ce.Emscripten.clang"
  },
  "schemaVersion": "3.2.3",
  "updatedAt": "2021-04-27T03:32:36.410Z",
  "networkType": "ethereum",
  "devdoc": {
    "methods": {}
  },
  "userdoc": {
    "methods": {}
  }
}